{
  "contractName": "PasswordVault",
  "abi": [
    {
      "inputs": [],
      "stateMutability": "nonpayable",
      "type": "constructor"
    },
    {
      "anonymous": false,
      "inputs": [
        {
          "indexed": true,
          "internalType": "address",
          "name": "previousOwner",
          "type": "address"
        },
        {
          "indexed": true,
          "internalType": "address",
          "name": "newOwner",
          "type": "address"
        }
      ],
      "name": "OwnershipTransferred",
      "type": "event"
    },
    {
      "inputs": [],
      "name": "owner",
      "outputs": [
        {
          "internalType": "address",
          "name": "",
          "type": "address"
        }
      ],
      "stateMutability": "view",
      "type": "function"
    },
    {
      "inputs": [],
      "name": "renounceOwnership",
      "outputs": [],
      "stateMutability": "nonpayable",
      "type": "function"
    },
    {
      "inputs": [
        {
          "internalType": "address",
          "name": "newOwner",
          "type": "address"
        }
      ],
      "name": "transferOwnership",
      "outputs": [],
      "stateMutability": "nonpayable",
      "type": "function"
    },
    {
      "inputs": [
        {
          "internalType": "string",
          "name": "_location",
          "type": "string"
        },
        {
          "internalType": "string",
          "name": "_hashed",
          "type": "string"
        }
      ],
      "name": "addToVault",
      "outputs": [
        {
          "internalType": "bool",
          "name": "",
          "type": "bool"
        }
      ],
      "stateMutability": "nonpayable",
      "type": "function"
    },
    {
      "inputs": [],
      "name": "getCompleteVault",
      "outputs": [
        {
          "components": [
            {
              "internalType": "string[]",
              "name": "passwords",
              "type": "string[]"
            },
            {
              "internalType": "string[]",
              "name": "locations",
              "type": "string[]"
            }
          ],
          "internalType": "struct PasswordVault.Vault",
          "name": "",
          "type": "tuple"
        }
      ],
      "stateMutability": "view",
      "type": "function"
    },
    {
      "inputs": [
        {
          "internalType": "string",
          "name": "_location",
          "type": "string"
        }
      ],
      "name": "removeFromVault",
      "outputs": [],
      "stateMutability": "nonpayable",
      "type": "function"
    },
    {
      "inputs": [],
      "name": "getUsageCount",
      "outputs": [
        {
          "internalType": "uint256",
          "name": "count",
          "type": "uint256"
        }
      ],
      "stateMutability": "view",
      "type": "function"
    }
  ],
  "bytecode": "0x608060405234801561001057600080fd5b5061002d61002261003a60201b60201c565b61004260201b60201c565b6000600181905550610106565b600033905090565b60008060009054906101000a900473ffffffffffffffffffffffffffffffffffffffff169050816000806101000a81548173ffffffffffffffffffffffffffffffffffffffff021916908373ffffffffffffffffffffffffffffffffffffffff1602179055508173ffffffffffffffffffffffffffffffffffffffff168173ffffffffffffffffffffffffffffffffffffffff167f8be0079c531659141344cd1fd0a4f28419497f9722a3daafe3b4186f6b6457e060405160405180910390a35050565b611551806101156000396000f3fe608060405234801561001057600080fd5b506004361061007d5760003560e01c8063ac942d171161005b578063ac942d17146100da578063b46d5c78146100f8578063b9b2ecef14610114578063f2fde38b146101325761007d565b8063715018a6146100825780638da5cb5b1461008c5780639bfb0bce146100aa575b600080fd5b61008a61014e565b005b6100946101d6565b6040516100a19190610b43565b60405180910390f35b6100c460048036038101906100bf9190610cb8565b6101ff565b6040516100d19190610d4b565b60405180910390f35b6100e261043b565b6040516100ef9190610ef4565b60405180910390f35b610112600480360381019061010d9190610f76565b61067b565b005b61011c610837565b6040516101299190610fdc565b60405180910390f35b61014c60048036038101906101479190611023565b610841565b005b610156610939565b73ffffffffffffffffffffffffffffffffffffffff166101746101d6565b73ffffffffffffffffffffffffffffffffffffffff16146101ca576040517f08c379a00000000000000000000000000000000000000000000000000000000081526004016101c1906110ad565b60405180910390fd5b6101d46000610941565b565b60008060009054906101000a900473ffffffffffffffffffffffffffffffffffffffff16905090565b6000610209610939565b73ffffffffffffffffffffffffffffffffffffffff166102276101d6565b73ffffffffffffffffffffffffffffffffffffffff161461027d576040517f08c379a0000000000000000000000000000000000000000000000000000000008152600401610274906110ad565b60405180910390fd5b60008351116102c1576040517f08c379a00000000000000000000000000000000000000000000000000000000081526004016102b89061113f565b60405180910390fd5b6000825111610305576040517f08c379a00000000000000000000000000000000000000000000000000000000081526004016102fc906111ab565b60405180910390fd5b60005b6003805490508110156103a457838051906020012060038281548110610331576103306111cb565b5b9060005260206000200160405161034891906112fa565b60405180910390201415610391576040517f08c379a00000000000000000000000000000000000000000000000000000000081526004016103889061135d565b60405180910390fd5b808061039c906113ac565b915050610308565b506002829080600181540180825580915050600190039060005260206000200160009091909190915090805190602001906103e0929190610a05565b5060038390806001815401808255809150506001900390600052602060002001600090919091909150908051906020019061041c929190610a05565b506001805461042b91906113f5565b6001819055506001905092915050565b610443610a8b565b61044b610939565b73ffffffffffffffffffffffffffffffffffffffff166104696101d6565b73ffffffffffffffffffffffffffffffffffffffff16146104bf576040517f08c379a00000000000000000000000000000000000000000000000000000000081526004016104b6906110ad565b60405180910390fd5b60405180604001604052806002805480602002602001604051908101604052809291908181526020016000905b8282101561059857838290600052602060002001805461050b90611229565b80601f016020809104026020016040519081016040528092919081815260200182805461053790611229565b80156105845780601f1061055957610100808354040283529160200191610584565b820191906000526020600020905b81548152906001019060200180831161056757829003601f168201915b5050505050815260200190600101906104ec565b5050505081526020016003805480602002602001604051908101604052809291908181526020016000905b8282101561066f5783829060005260206000200180546105e290611229565b80601f016020809104026020016040519081016040528092919081815260200182805461060e90611229565b801561065b5780601f106106305761010080835404028352916020019161065b565b820191906000526020600020905b81548152906001019060200180831161063e57829003601f168201915b5050505050815260200190600101906105c3565b50505050815250905090565b610683610939565b73ffffffffffffffffffffffffffffffffffffffff166106a16101d6565b73ffffffffffffffffffffffffffffffffffffffff16146106f7576040517f08c379a00000000000000000000000000000000000000000000000000000000081526004016106ee906110ad565b60405180910390fd5b60006003805490501161070957600080fd5b60006002805490501161071b57600080fd5b60008282905011610761576040517f08c379a00000000000000000000000000000000000000000000000000000000081526004016107589061113f565b60405180910390fd5b60005b600380549050811015610832578282604051610781929190611470565b60405180910390206003828154811061079d5761079c6111cb565b5b906000526020600020016040516107b491906112fa565b6040518091039020141561081f57600381815481106107d6576107d56111cb565b5b9060005260206000200160006107ec9190610aa5565b60028181548110610800576107ff6111cb565b5b9060005260206000200160006108169190610aa5565b60038054905090505b808061082a906113ac565b915050610764565b505050565b6000600154905090565b610849610939565b73ffffffffffffffffffffffffffffffffffffffff166108676101d6565b73ffffffffffffffffffffffffffffffffffffffff16146108bd576040517f08c379a00000000000000000000000000000000000000000000000000000000081526004016108b4906110ad565b60405180910390fd5b600073ffffffffffffffffffffffffffffffffffffffff168173ffffffffffffffffffffffffffffffffffffffff16141561092d576040517f08c379a0000000000000000000000000000000000000000000000000000000008152600401610924906114fb565b60405180910390fd5b61093681610941565b50565b600033905090565b60008060009054906101000a900473ffffffffffffffffffffffffffffffffffffffff169050816000806101000a81548173ffffffffffffffffffffffffffffffffffffffff021916908373ffffffffffffffffffffffffffffffffffffffff1602179055508173ffffffffffffffffffffffffffffffffffffffff168173ffffffffffffffffffffffffffffffffffffffff167f8be0079c531659141344cd1fd0a4f28419497f9722a3daafe3b4186f6b6457e060405160405180910390a35050565b828054610a1190611229565b90600052602060002090601f016020900481019282610a335760008555610a7a565b82601f10610a4c57805160ff1916838001178555610a7a565b82800160010185558215610a7a579182015b82811115610a79578251825591602001919060010190610a5e565b5b509050610a879190610ae5565b5090565b604051806040016040528060608152602001606081525090565b508054610ab190611229565b6000825580601f10610ac35750610ae2565b601f016020900490600052602060002090810190610ae19190610ae5565b5b50565b5b80821115610afe576000816000905550600101610ae6565b5090565b600073ffffffffffffffffffffffffffffffffffffffff82169050919050565b6000610b2d82610b02565b9050919050565b610b3d81610b22565b82525050565b6000602082019050610b586000830184610b34565b92915050565b6000604051905090565b600080fd5b600080fd5b600080fd5b600080fd5b6000601f19601f8301169050919050565b7f4e487b7100000000000000000000000000000000000000000000000000000000600052604160045260246000fd5b610bc582610b7c565b810181811067ffffffffffffffff82111715610be457610be3610b8d565b5b80604052505050565b6000610bf7610b5e565b9050610c038282610bbc565b919050565b600067ffffffffffffffff821115610c2357610c22610b8d565b5b610c2c82610b7c565b9050602081019050919050565b82818337600083830152505050565b6000610c5b610c5684610c08565b610bed565b905082815260208101848484011115610c7757610c76610b77565b5b610c82848285610c39565b509392505050565b600082601f830112610c9f57610c9e610b72565b5b8135610caf848260208601610c48565b91505092915050565b60008060408385031215610ccf57610cce610b68565b5b600083013567ffffffffffffffff811115610ced57610cec610b6d565b5b610cf985828601610c8a565b925050602083013567ffffffffffffffff811115610d1a57610d19610b6d565b5b610d2685828601610c8a565b9150509250929050565b60008115159050919050565b610d4581610d30565b82525050565b6000602082019050610d606000830184610d3c565b92915050565b600081519050919050565b600082825260208201905092915050565b6000819050602082019050919050565b600081519050919050565b600082825260208201905092915050565b60005b83811015610dcc578082015181840152602081019050610db1565b83811115610ddb576000848401525b50505050565b6000610dec82610d92565b610df68185610d9d565b9350610e06818560208601610dae565b610e0f81610b7c565b840191505092915050565b6000610e268383610de1565b905092915050565b6000602082019050919050565b6000610e4682610d66565b610e508185610d71565b935083602082028501610e6285610d82565b8060005b85811015610e9e5784840389528151610e7f8582610e1a565b9450610e8a83610e2e565b925060208a01995050600181019050610e66565b50829750879550505050505092915050565b60006040830160008301518482036000860152610ecd8282610e3b565b91505060208301518482036020860152610ee78282610e3b565b9150508091505092915050565b60006020820190508181036000830152610f0e8184610eb0565b905092915050565b600080fd5b600080fd5b60008083601f840112610f3657610f35610b72565b5b8235905067ffffffffffffffff811115610f5357610f52610f16565b5b602083019150836001820283011115610f6f57610f6e610f1b565b5b9250929050565b60008060208385031215610f8d57610f8c610b68565b5b600083013567ffffffffffffffff811115610fab57610faa610b6d565b5b610fb785828601610f20565b92509250509250929050565b6000819050919050565b610fd681610fc3565b82525050565b6000602082019050610ff16000830184610fcd565b92915050565b61100081610b22565b811461100b57600080fd5b50565b60008135905061101d81610ff7565b92915050565b60006020828403121561103957611038610b68565b5b60006110478482850161100e565b91505092915050565b600082825260208201905092915050565b7f4f776e61626c653a2063616c6c6572206973206e6f7420746865206f776e6572600082015250565b6000611097602083611050565b91506110a282611061565b602082019050919050565b600060208201905081810360008301526110c68161108a565b9050919050565b7f456d707479205f6c6f636174696f6e20737472696e67206e6f7420616c6c6f7760008201527f6564000000000000000000000000000000000000000000000000000000000000602082015250565b6000611129602283611050565b9150611134826110cd565b604082019050919050565b600060208201905081810360008301526111588161111c565b9050919050565b7f456d707479205f68617368656420737472696e67206e6f7420616c6c6f776564600082015250565b6000611195602083611050565b91506111a08261115f565b602082019050919050565b600060208201905081810360008301526111c481611188565b9050919050565b7f4e487b7100000000000000000000000000000000000000000000000000000000600052603260045260246000fd5b7f4e487b7100000000000000000000000000000000000000000000000000000000600052602260045260246000fd5b6000600282049050600182168061124157607f821691505b60208210811415611255576112546111fa565b5b50919050565b600081905092915050565b60008190508160005260206000209050919050565b6000815461128881611229565b611292818661125b565b945060018216600081146112ad57600181146112be576112f1565b60ff198316865281860193506112f1565b6112c785611266565b60005b838110156112e9578154818901526001820191506020810190506112ca565b838801955050505b50505092915050565b6000611306828461127b565b915081905092915050565b7f4e6f206475706c6963617465206c6f636174696f6e7320616c6c6f7765640000600082015250565b6000611347601e83611050565b915061135282611311565b602082019050919050565b600060208201905081810360008301526113768161133a565b9050919050565b7f4e487b7100000000000000000000000000000000000000000000000000000000600052601160045260246000fd5b60006113b782610fc3565b91507fffffffffffffffffffffffffffffffffffffffffffffffffffffffffffffffff8214156113ea576113e961137d565b5b600182019050919050565b600061140082610fc3565b915061140b83610fc3565b9250827fffffffffffffffffffffffffffffffffffffffffffffffffffffffffffffffff038211156114405761143f61137d565b5b828201905092915050565b6000611457838561125b565b9350611464838584610c39565b82840190509392505050565b600061147d82848661144b565b91508190509392505050565b7f4f776e61626c653a206e6577206f776e657220697320746865207a65726f206160008201527f6464726573730000000000000000000000000000000000000000000000000000602082015250565b60006114e5602683611050565b91506114f082611489565b604082019050919050565b60006020820190508181036000830152611514816114d8565b905091905056fea264697066735822122059d5be7eea64391bd6f9def689a3b73aa26b4320e385fa07e6e8defccd548eae64736f6c63430008090033",
  "immutableReferences": {},
  "source": "// SPDX-License-Identifier: MIT\npragma solidity ^0.8.5;\n\n\nimport \"@openzeppelin/contracts/access/Ownable.sol\";\n\n/**\n\n  PasswordVault contract. Contract that interfaces with the PASSR_. DApp.\n  This contracts enable the owner of the contract to store his passwords in a hashed way in a smart contract.\n  \n  Implements the Ownable smart contract from openzeppelin. \n\n*/\n\ncontract PasswordVault is Ownable{\n\n  //PasswordVault struct for returning the full password/locations array\n  struct Vault{\n    string[] passwords;\n    string[] locations;\n  }\n  /** \n    param usageCounter: uint;\n    \n    Counter that keeps track of interaction between the user and the smart contract.\n    This param will be used as a receivable percentage for airdrops.\n\n    Airdrops will have a fixed amount of tokens distributed, a user get's a\n    percentage amount of tokens based on their usageCounter.\n\n    SCENARIO:\n     -- An airdrop of 10K tokens spread over 10 users --\n    User 1 has a usageCounter of 11 while the other 9 have a usageCounter of 1.\n    The total amount of usages is 20 so for every usage, 500 tokens will be distributed.\n    User 1 will receive 11 * 500 tokens while the others receive 1 * 500.\n  */\n\n  uint usageCounter;\n\n  /**\n    param passwords: Array<string>\n    param locations: Array<string>\n\n    Arrays for password and location storage. The stored passwords are\n    hashed on the client side based on a master password.\n  \n  */\n  string[] private passwords;\n  string[] private locations;\n\n  // modifier to ensure the locations array is never negative;\n  modifier nonNegativeLocation {\n    require(locations.length > 0);\n    _;\n  }\n\n  //modifier to ensure the passwords array is never negative;\n  modifier nonNegativeHash {\n    require(passwords.length > 0);\n    _;\n  }\n\n  /** \n    CONSTRUCTOR\n    Initiates the usageCounter;\n  */\n  constructor(){\n    usageCounter = 0;\n  }\n\n  /*\n    addToVault()\n\n    DESC: \n    This function adds a password and it's key to to the passwordvault, returns true on succes.\n\n    REQUIRED:\n      - location can not be an empty string,\n      - hashed can not be an empty string,\n      - No duplicate locations can be stored,\n\n    SUCCES:\n    Stores the password and location in their respective arrays.\n    Updates the usage counter.\n    returns true;\n\n  */\n  function addToVault(string memory _location, string memory _hashed) public onlyOwner returns(bool){\n    require(bytes(_location).length > 0, \"Empty _location string not allowed\");\n    require(bytes(_hashed).length > 0, \"Empty _hashed string not allowed\");\n    for(uint i = 0; i < locations.length; i++){\n      require(keccak256(bytes(locations[i])) != keccak256(bytes(_location)), \"No duplicate locations allowed\");\n    }\n    passwords.push(_hashed);\n    locations.push(_location);\n    usageCounter = usageCounter + 1;\n    return true;\n  }\n\n  /*\n    getCompleteVault()\n\n    DESC: This function returns the complete vault of a user.\n\n  */\n  function getCompleteVault() public onlyOwner view returns(Vault memory){\n    return Vault(passwords, locations);\n  }\n\n    /*\n    removeFromVault()\n\n    DESC: This function removes a password from the passwordVault.\n\n    REQUIRED:\n      - location can not be an empty string.\n      - both passwords and locations can not be negative after the operation.\n\n    SUCCES:\n    Removes the password and location from the passwordVault;\n\n  */\n  function removeFromVault(string calldata _location) public onlyOwner nonNegativeLocation nonNegativeHash {\n    require(bytes(_location).length > 0, \"Empty _location string not allowed\");\n    for(uint i = 0; i < locations.length; i++){\n        if(keccak256(bytes(locations[i])) == keccak256(bytes(_location))){\n          delete locations[i];\n          delete passwords[i];\n          i = locations.length;\n        }\n    }\n  }\n\n  /*\n    getUsageCount()\n\n    DESC: \n    This function returns the usageCounter value.\n    This is not onlyOwner protected, this allows code to easly access the usageCount and use it when distributing airdrops.\n\n    SUCCES:\n    returns usageCounter;\n\n  */\n  function getUsageCount() public view returns(uint count){\n    return usageCounter;\n  }\n\n}\n",
  "sourcePath": "/Users/bjarneverdonck/Documents/projects/passr/contracts/PasswordVault.sol",
  "compiler": {
    "name": "solc",
    "version": "0.8.9+commit.e5eed63a.Emscripten.clang"
  },
  "schemaVersion": "3.4.3",
  "updatedAt": "2021-11-08T17:27:37.212Z",
  "devdoc": {
    "kind": "dev",
    "methods": {
      "owner()": {
        "details": "Returns the address of the current owner."
      },
      "renounceOwnership()": {
        "details": "Leaves the contract without owner. It will not be possible to call `onlyOwner` functions anymore. Can only be called by the current owner. NOTE: Renouncing ownership will leave the contract without an owner, thereby removing any functionality that is only available to the owner."
      },
      "transferOwnership(address)": {
        "details": "Transfers ownership of the contract to a new account (`newOwner`). Can only be called by the current owner."
      }
    },
    "version": 1
  },
  "userdoc": {
    "kind": "user",
    "methods": {
      "constructor": {
        "notice": "CONSTRUCTOR Initiates the usageCounter;"
      }
    },
    "notice": "PasswordVault contract. Contract that interfaces with the PASSR_. DApp. This contracts enable the owner of the contract to store his passwords in a hashed way in a smart contract. Implements the Ownable smart contract from openzeppelin. ",
    "version": 1
  }
}