{
  "contractName": "PasswordVault",
  "abi": [
    {
      "inputs": [],
      "stateMutability": "nonpayable",
      "type": "constructor"
    },
    {
      "anonymous": false,
      "inputs": [
        {
          "indexed": true,
          "internalType": "address",
          "name": "previousOwner",
          "type": "address"
        },
        {
          "indexed": true,
          "internalType": "address",
          "name": "newOwner",
          "type": "address"
        }
      ],
      "name": "OwnershipTransferred",
      "type": "event"
    },
    {
      "inputs": [],
      "name": "owner",
      "outputs": [
        {
          "internalType": "address",
          "name": "",
          "type": "address"
        }
      ],
      "stateMutability": "view",
      "type": "function"
    },
    {
      "inputs": [],
      "name": "renounceOwnership",
      "outputs": [],
      "stateMutability": "nonpayable",
      "type": "function"
    },
    {
      "inputs": [
        {
          "internalType": "address",
          "name": "newOwner",
          "type": "address"
        }
      ],
      "name": "transferOwnership",
      "outputs": [],
      "stateMutability": "nonpayable",
      "type": "function"
    },
    {
      "inputs": [
        {
          "internalType": "string",
          "name": "_location",
          "type": "string"
        },
        {
          "internalType": "string",
          "name": "_hashed",
          "type": "string"
        }
      ],
      "name": "addToVault",
      "outputs": [],
      "stateMutability": "nonpayable",
      "type": "function"
    },
    {
      "inputs": [],
      "name": "getCompleteVault",
      "outputs": [
        {
          "components": [
            {
              "internalType": "string[]",
              "name": "passwords",
              "type": "string[]"
            },
            {
              "internalType": "string[]",
              "name": "locations",
              "type": "string[]"
            }
          ],
          "internalType": "struct PasswordVault.Vault",
          "name": "",
          "type": "tuple"
        }
      ],
      "stateMutability": "view",
      "type": "function"
    },
    {
      "inputs": [
        {
          "internalType": "string",
          "name": "_location",
          "type": "string"
        }
      ],
      "name": "removeFromVault",
      "outputs": [],
      "stateMutability": "nonpayable",
      "type": "function"
    }
  ],
  "bytecode": "0x608060405234801561001057600080fd5b5061002d61002261003260201b60201c565b61003a60201b60201c565b6100fe565b600033905090565b60008060009054906101000a900473ffffffffffffffffffffffffffffffffffffffff169050816000806101000a81548173ffffffffffffffffffffffffffffffffffffffff021916908373ffffffffffffffffffffffffffffffffffffffff1602179055508173ffffffffffffffffffffffffffffffffffffffff168173ffffffffffffffffffffffffffffffffffffffff167f8be0079c531659141344cd1fd0a4f28419497f9722a3daafe3b4186f6b6457e060405160405180910390a35050565b61113e8061010d6000396000f3fe608060405234801561001057600080fd5b50600436106100625760003560e01c8063715018a6146100675780638da5cb5b146100715780639bfb0bce1461008f578063ac942d17146100ab578063b46d5c78146100c9578063f2fde38b146100e5575b600080fd5b61006f610101565b005b610079610189565b6040516100869190610d0b565b60405180910390f35b6100a960048036038101906100a49190610a64565b6101b2565b005b6100b36102aa565b6040516100c09190610d66565b60405180910390f35b6100e360048036038101906100de9190610a17565b6104ea565b005b6100ff60048036038101906100fa91906109ea565b61064e565b005b610109610746565b73ffffffffffffffffffffffffffffffffffffffff16610127610189565b73ffffffffffffffffffffffffffffffffffffffff161461017d576040517f08c379a000000000000000000000000000000000000000000000000000000000815260040161017490610d46565b60405180910390fd5b610187600061074e565b565b60008060009054906101000a900473ffffffffffffffffffffffffffffffffffffffff16905090565b6101ba610746565b73ffffffffffffffffffffffffffffffffffffffff166101d8610189565b73ffffffffffffffffffffffffffffffffffffffff161461022e576040517f08c379a000000000000000000000000000000000000000000000000000000000815260040161022590610d46565b60405180910390fd5b600181908060018154018082558091505060019003906000526020600020016000909190919091509080519060200190610269929190610812565b506002829080600181540180825580915050600190039060005260206000200160009091909190915090805190602001906102a5929190610812565b505050565b6102b2610898565b6102ba610746565b73ffffffffffffffffffffffffffffffffffffffff166102d8610189565b73ffffffffffffffffffffffffffffffffffffffff161461032e576040517f08c379a000000000000000000000000000000000000000000000000000000000815260040161032590610d46565b60405180910390fd5b60405180604001604052806001805480602002602001604051908101604052809291908181526020016000905b8282101561040757838290600052602060002001805461037a90610ee2565b80601f01602080910402602001604051908101604052809291908181526020018280546103a690610ee2565b80156103f35780601f106103c8576101008083540402835291602001916103f3565b820191906000526020600020905b8154815290600101906020018083116103d657829003601f168201915b50505050508152602001906001019061035b565b5050505081526020016002805480602002602001604051908101604052809291908181526020016000905b828210156104de57838290600052602060002001805461045190610ee2565b80601f016020809104026020016040519081016040528092919081815260200182805461047d90610ee2565b80156104ca5780601f1061049f576101008083540402835291602001916104ca565b820191906000526020600020905b8154815290600101906020018083116104ad57829003601f168201915b505050505081526020019060010190610432565b50505050815250905090565b6104f2610746565b73ffffffffffffffffffffffffffffffffffffffff16610510610189565b73ffffffffffffffffffffffffffffffffffffffff1614610566576040517f08c379a000000000000000000000000000000000000000000000000000000000815260040161055d90610d46565b60405180910390fd5b60006002805490501161057857600080fd5b60005b600280549050811015610649578282604051610598929190610cdb565b6040518091039020600282815481106105b4576105b3610fec565b5b906000526020600020016040516105cb9190610cf4565b6040518091039020141561063657600281815481106105ed576105ec610fec565b5b90600052602060002001600061060391906108b2565b6001818154811061061757610616610fec565b5b90600052602060002001600061062d91906108b2565b60028054905090505b808061064190610f45565b91505061057b565b505050565b610656610746565b73ffffffffffffffffffffffffffffffffffffffff16610674610189565b73ffffffffffffffffffffffffffffffffffffffff16146106ca576040517f08c379a00000000000000000000000000000000000000000000000000000000081526004016106c190610d46565b60405180910390fd5b600073ffffffffffffffffffffffffffffffffffffffff168173ffffffffffffffffffffffffffffffffffffffff16141561073a576040517f08c379a000000000000000000000000000000000000000000000000000000000815260040161073190610d26565b60405180910390fd5b6107438161074e565b50565b600033905090565b60008060009054906101000a900473ffffffffffffffffffffffffffffffffffffffff169050816000806101000a81548173ffffffffffffffffffffffffffffffffffffffff021916908373ffffffffffffffffffffffffffffffffffffffff1602179055508173ffffffffffffffffffffffffffffffffffffffff168173ffffffffffffffffffffffffffffffffffffffff167f8be0079c531659141344cd1fd0a4f28419497f9722a3daafe3b4186f6b6457e060405160405180910390a35050565b82805461081e90610ee2565b90600052602060002090601f0160209004810192826108405760008555610887565b82601f1061085957805160ff1916838001178555610887565b82800160010185558215610887579182015b8281111561088657825182559160200191906001019061086b565b5b50905061089491906108f2565b5090565b604051806040016040528060608152602001606081525090565b5080546108be90610ee2565b6000825580601f106108d057506108ef565b601f0160209004906000526020600020908101906108ee91906108f2565b5b50565b5b8082111561090b5760008160009055506001016108f3565b5090565b600061092261091d84610dad565b610d88565b90508281526020810184848401111561093e5761093d611059565b5b610949848285610ea0565b509392505050565b600081359050610960816110f1565b92915050565b60008083601f84011261097c5761097b61104f565b5b8235905067ffffffffffffffff8111156109995761099861104a565b5b6020830191508360018202830111156109b5576109b4611054565b5b9250929050565b600082601f8301126109d1576109d061104f565b5b81356109e184826020860161090f565b91505092915050565b600060208284031215610a00576109ff611063565b5b6000610a0e84828501610951565b91505092915050565b60008060208385031215610a2e57610a2d611063565b5b600083013567ffffffffffffffff811115610a4c57610a4b61105e565b5b610a5885828601610966565b92509250509250929050565b60008060408385031215610a7b57610a7a611063565b5b600083013567ffffffffffffffff811115610a9957610a9861105e565b5b610aa5858286016109bc565b925050602083013567ffffffffffffffff811115610ac657610ac561105e565b5b610ad2858286016109bc565b9150509250929050565b6000610ae88383610c18565b905092915050565b610af981610e64565b82525050565b6000610b0a82610e03565b610b148185610e26565b935083602082028501610b2685610dde565b8060005b85811015610b625784840389528151610b438582610adc565b9450610b4e83610e19565b925060208a01995050600181019050610b2a565b50829750879550505050505092915050565b6000610b808385610e37565b9350610b8d838584610ea0565b82840190509392505050565b60008154610ba681610ee2565b610bb08186610e37565b94506001821660008114610bcb5760018114610bdc57610c0f565b60ff19831686528186019350610c0f565b610be585610dee565b60005b83811015610c0757815481890152600182019150602081019050610be8565b838801955050505b50505092915050565b6000610c2382610e0e565b610c2d8185610e42565b9350610c3d818560208601610eaf565b610c4681611068565b840191505092915050565b6000610c5e602683610e53565b9150610c6982611079565b604082019050919050565b6000610c81602083610e53565b9150610c8c826110c8565b602082019050919050565b60006040830160008301518482036000860152610cb48282610aff565b91505060208301518482036020860152610cce8282610aff565b9150508091505092915050565b6000610ce8828486610b74565b91508190509392505050565b6000610d008284610b99565b915081905092915050565b6000602082019050610d206000830184610af0565b92915050565b60006020820190508181036000830152610d3f81610c51565b9050919050565b60006020820190508181036000830152610d5f81610c74565b9050919050565b60006020820190508181036000830152610d808184610c97565b905092915050565b6000610d92610da3565b9050610d9e8282610f14565b919050565b6000604051905090565b600067ffffffffffffffff821115610dc857610dc761101b565b5b610dd182611068565b9050602081019050919050565b6000819050602082019050919050565b60008190508160005260206000209050919050565b600081519050919050565b600081519050919050565b6000602082019050919050565b600082825260208201905092915050565b600081905092915050565b600082825260208201905092915050565b600082825260208201905092915050565b6000610e6f82610e76565b9050919050565b600073ffffffffffffffffffffffffffffffffffffffff82169050919050565b6000819050919050565b82818337600083830152505050565b60005b83811015610ecd578082015181840152602081019050610eb2565b83811115610edc576000848401525b50505050565b60006002820490506001821680610efa57607f821691505b60208210811415610f0e57610f0d610fbd565b5b50919050565b610f1d82611068565b810181811067ffffffffffffffff82111715610f3c57610f3b61101b565b5b80604052505050565b6000610f5082610e96565b91507fffffffffffffffffffffffffffffffffffffffffffffffffffffffffffffffff821415610f8357610f82610f8e565b5b600182019050919050565b7f4e487b7100000000000000000000000000000000000000000000000000000000600052601160045260246000fd5b7f4e487b7100000000000000000000000000000000000000000000000000000000600052602260045260246000fd5b7f4e487b7100000000000000000000000000000000000000000000000000000000600052603260045260246000fd5b7f4e487b7100000000000000000000000000000000000000000000000000000000600052604160045260246000fd5b600080fd5b600080fd5b600080fd5b600080fd5b600080fd5b600080fd5b6000601f19601f8301169050919050565b7f4f776e61626c653a206e6577206f776e657220697320746865207a65726f206160008201527f6464726573730000000000000000000000000000000000000000000000000000602082015250565b7f4f776e61626c653a2063616c6c6572206973206e6f7420746865206f776e6572600082015250565b6110fa81610e64565b811461110557600080fd5b5056fea2646970667358221220242476f39e19525b7968a22529f6ed0fef950b2b1024945f7dcac99aa575ab7864736f6c63430008070033",
  "immutableReferences": {},
  "source": "// SPDX-License-Identifier: MIT\npragma solidity ^0.8.5;\n\n\nimport \"@openzeppelin/contracts/access/Ownable.sol\";\n\n/**\n  PasswordVault contract. Contract that interfaces with the PASSR_. DApp.\n  This contracts enable the owner of the contract to store his passwords in a hashed way in a smart contract.\n\n  Implements the Ownable smart contract from openzeppelin. \n\n  * param limit: the passwordlimit that is able to be stored.\n  * param stored: the amount of passwords that are currently being stored.\n\n  TODO: \n    *Implement custom token\n*/\n\ncontract PasswordVault is Ownable{\n\n  struct Vault{\n    string[] passwords;\n    string[] locations;\n  }\n\n  //This makes sure the amount stored can never be negative\n  modifier nonNegativeIndex {\n    require(locations.length > 0);\n    _;\n  }\n\n  string[] private passwords;\n  string[] private locations;\n\n  //Constructor\n  constructor(){\n    \n  }\n\n  //Add a Password\n  function addToVault(string memory _location, string memory _hashed) public onlyOwner{\n    passwords.push(_hashed);\n    locations.push(_location);\n  }\n\n  //Get all Passwords\n  function getCompleteVault() public onlyOwner view returns(Vault memory){\n    return Vault(passwords, locations);\n  }\n\n  //Remove a password check if password still exist\n  function removeFromVault(string calldata _location) public onlyOwner nonNegativeIndex {\n    for(uint i = 0; i < locations.length; i++){\n        if(keccak256(bytes(locations[i])) == keccak256(bytes(_location))){\n          delete locations[i];\n          delete passwords[i];\n          i = locations.length;\n        }\n    }\n  }\n\n}\n",
  "sourcePath": "/home/bjarne/Documents/Development/PROJECTS/011_Defi_Password_Manager/Full_Front/contracts/PasswordVault.sol",
  "compiler": {
    "name": "solc",
    "version": "0.8.7+commit.e28d00a7.Emscripten.clang"
  },
  "schemaVersion": "3.2.3",
  "updatedAt": "2021-09-06T15:57:38.061Z",
  "devdoc": {
    "kind": "dev",
    "methods": {
      "owner()": {
        "details": "Returns the address of the current owner."
      },
      "renounceOwnership()": {
        "details": "Leaves the contract without owner. It will not be possible to call `onlyOwner` functions anymore. Can only be called by the current owner. NOTE: Renouncing ownership will leave the contract without an owner, thereby removing any functionality that is only available to the owner."
      },
      "transferOwnership(address)": {
        "details": "Transfers ownership of the contract to a new account (`newOwner`). Can only be called by the current owner."
      }
    },
    "version": 1
  },
  "userdoc": {
    "kind": "user",
    "methods": {},
    "notice": "PasswordVault contract. Contract that interfaces with the PASSR_. DApp. This contracts enable the owner of the contract to store his passwords in a hashed way in a smart contract. Implements the Ownable smart contract from openzeppelin.  param limit: the passwordlimit that is able to be stored. param stored: the amount of passwords that are currently being stored. TODO:  Implement custom token",
    "version": 1
  }
}