{
  "contractName": "PasswordVault",
  "abi": [
    {
      "inputs": [],
      "stateMutability": "nonpayable",
      "type": "constructor"
    },
    {
      "anonymous": false,
      "inputs": [
        {
          "indexed": true,
          "internalType": "address",
          "name": "previousOwner",
          "type": "address"
        },
        {
          "indexed": true,
          "internalType": "address",
          "name": "newOwner",
          "type": "address"
        }
      ],
      "name": "OwnershipTransferred",
      "type": "event"
    },
    {
      "inputs": [],
      "name": "owner",
      "outputs": [
        {
          "internalType": "address",
          "name": "",
          "type": "address"
        }
      ],
      "stateMutability": "view",
      "type": "function"
    },
    {
      "inputs": [],
      "name": "renounceOwnership",
      "outputs": [],
      "stateMutability": "nonpayable",
      "type": "function"
    },
    {
      "inputs": [
        {
          "internalType": "address",
          "name": "newOwner",
          "type": "address"
        }
      ],
      "name": "transferOwnership",
      "outputs": [],
      "stateMutability": "nonpayable",
      "type": "function"
    },
    {
      "inputs": [
        {
          "internalType": "string",
          "name": "_location",
          "type": "string"
        },
        {
          "internalType": "string",
          "name": "_hashed",
          "type": "string"
        },
        {
          "internalType": "string",
          "name": "_credential",
          "type": "string"
        }
      ],
      "name": "addToVault",
      "outputs": [
        {
          "internalType": "bool",
          "name": "",
          "type": "bool"
        }
      ],
      "stateMutability": "nonpayable",
      "type": "function"
    },
    {
      "inputs": [],
      "name": "getCompleteVault",
      "outputs": [
        {
          "components": [
            {
              "internalType": "string[]",
              "name": "passwords",
              "type": "string[]"
            },
            {
              "internalType": "string[]",
              "name": "locations",
              "type": "string[]"
            },
            {
              "internalType": "string[]",
              "name": "credentials",
              "type": "string[]"
            }
          ],
          "internalType": "struct PasswordVault.Vault",
          "name": "",
          "type": "tuple"
        }
      ],
      "stateMutability": "view",
      "type": "function"
    },
    {
      "inputs": [
        {
          "internalType": "string",
          "name": "_location",
          "type": "string"
        }
      ],
      "name": "removeFromVault",
      "outputs": [],
      "stateMutability": "nonpayable",
      "type": "function"
    },
    {
      "inputs": [],
      "name": "getUsageCount",
      "outputs": [
        {
          "internalType": "uint256",
          "name": "count",
          "type": "uint256"
        }
      ],
      "stateMutability": "view",
      "type": "function"
    }
  ],
  "bytecode": "0x608060405234801561001057600080fd5b5061002d61002261003a60201b60201c565b61004260201b60201c565b6000600181905550610106565b600033905090565b60008060009054906101000a900473ffffffffffffffffffffffffffffffffffffffff169050816000806101000a81548173ffffffffffffffffffffffffffffffffffffffff021916908373ffffffffffffffffffffffffffffffffffffffff1602179055508173ffffffffffffffffffffffffffffffffffffffff168173ffffffffffffffffffffffffffffffffffffffff167f8be0079c531659141344cd1fd0a4f28419497f9722a3daafe3b4186f6b6457e060405160405180910390a35050565b6116df806101156000396000f3fe608060405234801561001057600080fd5b506004361061007d5760003560e01c8063ac942d171161005b578063ac942d17146100da578063b46d5c78146100f8578063b9b2ecef14610114578063f2fde38b146101325761007d565b8063715018a6146100825780637881a3991461008c5780638da5cb5b146100bc575b600080fd5b61008a61014e565b005b6100a660048036038101906100a19190610da1565b6101d6565b6040516100b39190610e63565b60405180910390f35b6100c461044f565b6040516100d19190610ebf565b60405180910390f35b6100e2610478565b6040516100ef9190611082565b60405180910390f35b610112600480360381019061010d9190611104565b61078f565b005b61011c610975565b604051610129919061116a565b60405180910390f35b61014c600480360381019061014791906111b1565b61097f565b005b610156610a77565b73ffffffffffffffffffffffffffffffffffffffff1661017461044f565b73ffffffffffffffffffffffffffffffffffffffff16146101ca576040517f08c379a00000000000000000000000000000000000000000000000000000000081526004016101c19061123b565b60405180910390fd5b6101d46000610a7f565b565b60006101e0610a77565b73ffffffffffffffffffffffffffffffffffffffff166101fe61044f565b73ffffffffffffffffffffffffffffffffffffffff1614610254576040517f08c379a000000000000000000000000000000000000000000000000000000000815260040161024b9061123b565b60405180910390fd5b6000845111610298576040517f08c379a000000000000000000000000000000000000000000000000000000000815260040161028f906112cd565b60405180910390fd5b60008351116102dc576040517f08c379a00000000000000000000000000000000000000000000000000000000081526004016102d390611339565b60405180910390fd5b60005b60038054905081101561037b5784805190602001206003828154811061030857610307611359565b5b9060005260206000200160405161031f9190611488565b60405180910390201415610368576040517f08c379a000000000000000000000000000000000000000000000000000000000815260040161035f906114eb565b60405180910390fd5b80806103739061153a565b9150506102df565b506002839080600181540180825580915050600190039060005260206000200160009091909190915090805190602001906103b7929190610b43565b506003849080600181540180825580915050600190039060005260206000200160009091909190915090805190602001906103f3929190610b43565b5060048290806001815401808255809150506001900390600052602060002001600090919091909150908051906020019061042f929190610b43565b506001805461043e9190611583565b600181905550600190509392505050565b60008060009054906101000a900473ffffffffffffffffffffffffffffffffffffffff16905090565b610480610bc9565b610488610a77565b73ffffffffffffffffffffffffffffffffffffffff166104a661044f565b73ffffffffffffffffffffffffffffffffffffffff16146104fc576040517f08c379a00000000000000000000000000000000000000000000000000000000081526004016104f39061123b565b60405180910390fd5b60405180606001604052806002805480602002602001604051908101604052809291908181526020016000905b828210156105d5578382906000526020600020018054610548906113b7565b80601f0160208091040260200160405190810160405280929190818152602001828054610574906113b7565b80156105c15780601f10610596576101008083540402835291602001916105c1565b820191906000526020600020905b8154815290600101906020018083116105a457829003601f168201915b505050505081526020019060010190610529565b5050505081526020016003805480602002602001604051908101604052809291908181526020016000905b828210156106ac57838290600052602060002001805461061f906113b7565b80601f016020809104026020016040519081016040528092919081815260200182805461064b906113b7565b80156106985780601f1061066d57610100808354040283529160200191610698565b820191906000526020600020905b81548152906001019060200180831161067b57829003601f168201915b505050505081526020019060010190610600565b5050505081526020016004805480602002602001604051908101604052809291908181526020016000905b828210156107835783829060005260206000200180546106f6906113b7565b80601f0160208091040260200160405190810160405280929190818152602001828054610722906113b7565b801561076f5780601f106107445761010080835404028352916020019161076f565b820191906000526020600020905b81548152906001019060200180831161075257829003601f168201915b5050505050815260200190600101906106d7565b50505050815250905090565b610797610a77565b73ffffffffffffffffffffffffffffffffffffffff166107b561044f565b73ffffffffffffffffffffffffffffffffffffffff161461080b576040517f08c379a00000000000000000000000000000000000000000000000000000000081526004016108029061123b565b60405180910390fd5b60006003805490501161081d57600080fd5b60006002805490501161082f57600080fd5b60008282905011610875576040517f08c379a000000000000000000000000000000000000000000000000000000000815260040161086c906112cd565b60405180910390fd5b60005b6003805490508110156109705782826040516108959291906115fe565b6040518091039020600382815481106108b1576108b0611359565b5b906000526020600020016040516108c89190611488565b6040518091039020141561095d57600381815481106108ea576108e9611359565b5b9060005260206000200160006109009190610bea565b6002818154811061091457610913611359565b5b90600052602060002001600061092a9190610bea565b6004818154811061093e5761093d611359565b5b9060005260206000200160006109549190610bea565b60038054905090505b80806109689061153a565b915050610878565b505050565b6000600154905090565b610987610a77565b73ffffffffffffffffffffffffffffffffffffffff166109a561044f565b73ffffffffffffffffffffffffffffffffffffffff16146109fb576040517f08c379a00000000000000000000000000000000000000000000000000000000081526004016109f29061123b565b60405180910390fd5b600073ffffffffffffffffffffffffffffffffffffffff168173ffffffffffffffffffffffffffffffffffffffff161415610a6b576040517f08c379a0000000000000000000000000000000000000000000000000000000008152600401610a6290611689565b60405180910390fd5b610a7481610a7f565b50565b600033905090565b60008060009054906101000a900473ffffffffffffffffffffffffffffffffffffffff169050816000806101000a81548173ffffffffffffffffffffffffffffffffffffffff021916908373ffffffffffffffffffffffffffffffffffffffff1602179055508173ffffffffffffffffffffffffffffffffffffffff168173ffffffffffffffffffffffffffffffffffffffff167f8be0079c531659141344cd1fd0a4f28419497f9722a3daafe3b4186f6b6457e060405160405180910390a35050565b828054610b4f906113b7565b90600052602060002090601f016020900481019282610b715760008555610bb8565b82601f10610b8a57805160ff1916838001178555610bb8565b82800160010185558215610bb8579182015b82811115610bb7578251825591602001919060010190610b9c565b5b509050610bc59190610c2a565b5090565b60405180606001604052806060815260200160608152602001606081525090565b508054610bf6906113b7565b6000825580601f10610c085750610c27565b601f016020900490600052602060002090810190610c269190610c2a565b5b50565b5b80821115610c43576000816000905550600101610c2b565b5090565b6000604051905090565b600080fd5b600080fd5b600080fd5b600080fd5b6000601f19601f8301169050919050565b7f4e487b7100000000000000000000000000000000000000000000000000000000600052604160045260246000fd5b610cae82610c65565b810181811067ffffffffffffffff82111715610ccd57610ccc610c76565b5b80604052505050565b6000610ce0610c47565b9050610cec8282610ca5565b919050565b600067ffffffffffffffff821115610d0c57610d0b610c76565b5b610d1582610c65565b9050602081019050919050565b82818337600083830152505050565b6000610d44610d3f84610cf1565b610cd6565b905082815260208101848484011115610d6057610d5f610c60565b5b610d6b848285610d22565b509392505050565b600082601f830112610d8857610d87610c5b565b5b8135610d98848260208601610d31565b91505092915050565b600080600060608486031215610dba57610db9610c51565b5b600084013567ffffffffffffffff811115610dd857610dd7610c56565b5b610de486828701610d73565b935050602084013567ffffffffffffffff811115610e0557610e04610c56565b5b610e1186828701610d73565b925050604084013567ffffffffffffffff811115610e3257610e31610c56565b5b610e3e86828701610d73565b9150509250925092565b60008115159050919050565b610e5d81610e48565b82525050565b6000602082019050610e786000830184610e54565b92915050565b600073ffffffffffffffffffffffffffffffffffffffff82169050919050565b6000610ea982610e7e565b9050919050565b610eb981610e9e565b82525050565b6000602082019050610ed46000830184610eb0565b92915050565b600081519050919050565b600082825260208201905092915050565b6000819050602082019050919050565b600081519050919050565b600082825260208201905092915050565b60005b83811015610f40578082015181840152602081019050610f25565b83811115610f4f576000848401525b50505050565b6000610f6082610f06565b610f6a8185610f11565b9350610f7a818560208601610f22565b610f8381610c65565b840191505092915050565b6000610f9a8383610f55565b905092915050565b6000602082019050919050565b6000610fba82610eda565b610fc48185610ee5565b935083602082028501610fd685610ef6565b8060005b858110156110125784840389528151610ff38582610f8e565b9450610ffe83610fa2565b925060208a01995050600181019050610fda565b50829750879550505050505092915050565b600060608301600083015184820360008601526110418282610faf565b9150506020830151848203602086015261105b8282610faf565b915050604083015184820360408601526110758282610faf565b9150508091505092915050565b6000602082019050818103600083015261109c8184611024565b905092915050565b600080fd5b600080fd5b60008083601f8401126110c4576110c3610c5b565b5b8235905067ffffffffffffffff8111156110e1576110e06110a4565b5b6020830191508360018202830111156110fd576110fc6110a9565b5b9250929050565b6000806020838503121561111b5761111a610c51565b5b600083013567ffffffffffffffff81111561113957611138610c56565b5b611145858286016110ae565b92509250509250929050565b6000819050919050565b61116481611151565b82525050565b600060208201905061117f600083018461115b565b92915050565b61118e81610e9e565b811461119957600080fd5b50565b6000813590506111ab81611185565b92915050565b6000602082840312156111c7576111c6610c51565b5b60006111d58482850161119c565b91505092915050565b600082825260208201905092915050565b7f4f776e61626c653a2063616c6c6572206973206e6f7420746865206f776e6572600082015250565b60006112256020836111de565b9150611230826111ef565b602082019050919050565b6000602082019050818103600083015261125481611218565b9050919050565b7f456d707479205f6c6f636174696f6e20737472696e67206e6f7420616c6c6f7760008201527f6564000000000000000000000000000000000000000000000000000000000000602082015250565b60006112b76022836111de565b91506112c28261125b565b604082019050919050565b600060208201905081810360008301526112e6816112aa565b9050919050565b7f456d707479205f68617368656420737472696e67206e6f7420616c6c6f776564600082015250565b60006113236020836111de565b915061132e826112ed565b602082019050919050565b6000602082019050818103600083015261135281611316565b9050919050565b7f4e487b7100000000000000000000000000000000000000000000000000000000600052603260045260246000fd5b7f4e487b7100000000000000000000000000000000000000000000000000000000600052602260045260246000fd5b600060028204905060018216806113cf57607f821691505b602082108114156113e3576113e2611388565b5b50919050565b600081905092915050565b60008190508160005260206000209050919050565b60008154611416816113b7565b61142081866113e9565b9450600182166000811461143b576001811461144c5761147f565b60ff1983168652818601935061147f565b611455856113f4565b60005b8381101561147757815481890152600182019150602081019050611458565b838801955050505b50505092915050565b60006114948284611409565b915081905092915050565b7f4e6f206475706c6963617465206c6f636174696f6e7320616c6c6f7765640000600082015250565b60006114d5601e836111de565b91506114e08261149f565b602082019050919050565b60006020820190508181036000830152611504816114c8565b9050919050565b7f4e487b7100000000000000000000000000000000000000000000000000000000600052601160045260246000fd5b600061154582611151565b91507fffffffffffffffffffffffffffffffffffffffffffffffffffffffffffffffff8214156115785761157761150b565b5b600182019050919050565b600061158e82611151565b915061159983611151565b9250827fffffffffffffffffffffffffffffffffffffffffffffffffffffffffffffffff038211156115ce576115cd61150b565b5b828201905092915050565b60006115e583856113e9565b93506115f2838584610d22565b82840190509392505050565b600061160b8284866115d9565b91508190509392505050565b7f4f776e61626c653a206e6577206f776e657220697320746865207a65726f206160008201527f6464726573730000000000000000000000000000000000000000000000000000602082015250565b60006116736026836111de565b915061167e82611617565b604082019050919050565b600060208201905081810360008301526116a281611666565b905091905056fea26469706673582212208278f81196355588d81de4ce1208d96c49bb211ea32cdb88a3bfee1b58797dbe64736f6c634300080a0033",
  "immutableReferences": {},
  "source": "// SPDX-License-Identifier: MIT\npragma solidity ^0.8.5;\n\n\nimport \"@openzeppelin/contracts/access/Ownable.sol\";\n\n/**\n\n  PasswordVault contract. Contract that interfaces with the PASSR_. DApp.\n  This contracts enable the owner of the contract to store his passwords in a hashed way in a smart contract.\n  \n  Implements the Ownable smart contract from openzeppelin. \n\n*/\n\ncontract PasswordVault is Ownable{\n\n  //PasswordVault struct for returning the full password/locations array\n  struct Vault{\n    string[] passwords;\n    string[] locations;\n    string[] credentials;\n  }\n  /** \n    param usageCounter: uint;\n    \n    Counter that keeps track of interaction between the user and the smart contract.\n    This param will be used as a receivable percentage for airdrops.\n\n    Airdrops will have a fixed amount of tokens distributed, a user get's a\n    percentage amount of tokens based on their usageCounter.\n\n    SCENARIO:\n     -- An airdrop of 10K tokens spread over 10 users --\n    User 1 has a usageCounter of 11 while the other 9 have a usageCounter of 1.\n    The total amount of usages is 20 so for every usage, 500 tokens will be distributed.\n    User 1 will receive 11 * 500 tokens while the others receive 1 * 500.\n  */\n\n  uint usageCounter;\n\n  /**\n    param passwords: Array<string>\n    param locations: Array<string>\n\n    Arrays for password and location storage. The stored passwords are\n    hashed on the client side based on a master password.\n  \n  */\n  string[] private passwords;\n  string[] private locations;\n  string[] private credentials;\n\n  // modifier to ensure the locations array is never negative;\n  modifier nonNegativeLocation {\n    require(locations.length > 0);\n    _;\n  }\n\n  //modifier to ensure the passwords array is never negative;\n  modifier nonNegativeHash {\n    require(passwords.length > 0);\n    _;\n  }\n\n  /** \n    CONSTRUCTOR\n    Initiates the usageCounter;\n  */\n  constructor(){\n    usageCounter = 0;\n  }\n\n  /*\n    addToVault()\n\n    DESC: \n    This function adds a password and it's key to to the passwordvault, returns true on succes.\n\n    REQUIRED:\n      - location can not be an empty string,\n      - hashed can not be an empty string,\n      - No duplicate locations can be stored,\n\n    SUCCES:\n    Stores the password and location in their respective arrays.\n    Updates the usage counter.\n    returns true;\n\n  */\n  function addToVault(string memory _location, string memory _hashed, string memory _credential) public onlyOwner returns(bool){\n    require(bytes(_location).length > 0, \"Empty _location string not allowed\");\n    require(bytes(_hashed).length > 0, \"Empty _hashed string not allowed\");\n    for(uint i = 0; i < locations.length; i++){\n      require(keccak256(bytes(locations[i])) != keccak256(bytes(_location)), \"No duplicate locations allowed\");\n    }\n    passwords.push(_hashed);\n    locations.push(_location);\n    credentials.push(_credential);\n    usageCounter = usageCounter + 1;\n    return true;\n  }\n\n  /*\n    getCompleteVault()\n\n    DESC: This function returns the complete vault of a user.\n\n  */\n  function getCompleteVault() public onlyOwner view returns(Vault memory){\n    return Vault(passwords, locations, credentials);\n  }\n\n    /*\n    removeFromVault()\n\n    DESC: This function removes a password from the passwordVault.\n\n    REQUIRED:\n      - location can not be an empty string.\n      - both passwords and locations can not be negative after the operation.\n\n    SUCCES:\n    Removes the password and location from the passwordVault;\n\n  */\n  function removeFromVault(string calldata _location) public onlyOwner nonNegativeLocation nonNegativeHash {\n    require(bytes(_location).length > 0, \"Empty _location string not allowed\");\n    for(uint i = 0; i < locations.length; i++){\n        if(keccak256(bytes(locations[i])) == keccak256(bytes(_location))){\n          delete locations[i];\n          delete passwords[i];\n          delete credentials[i];\n          i = locations.length;\n        }\n    }\n  }\n\n  /*\n    getUsageCount()\n\n    DESC: \n    This function returns the usageCounter value.\n    This is not onlyOwner protected, this allows code to easly access the usageCount and use it when distributing airdrops.\n\n    SUCCES:\n    returns usageCounter;\n\n  */\n  function getUsageCount() public view returns(uint count){\n    return usageCounter;\n  }\n\n}\n",
  "sourcePath": "/Users/bjarneverdonck/Documents/projects/passr/contracts/PasswordVault.sol",
  "compiler": {
    "name": "solc",
    "version": "0.8.10+commit.fc410830.Emscripten.clang"
  },
  "schemaVersion": "3.4.3",
  "updatedAt": "2021-11-24T14:06:49.344Z",
  "devdoc": {
    "kind": "dev",
    "methods": {
      "owner()": {
        "details": "Returns the address of the current owner."
      },
      "renounceOwnership()": {
        "details": "Leaves the contract without owner. It will not be possible to call `onlyOwner` functions anymore. Can only be called by the current owner. NOTE: Renouncing ownership will leave the contract without an owner, thereby removing any functionality that is only available to the owner."
      },
      "transferOwnership(address)": {
        "details": "Transfers ownership of the contract to a new account (`newOwner`). Can only be called by the current owner."
      }
    },
    "version": 1
  },
  "userdoc": {
    "kind": "user",
    "methods": {
      "constructor": {
        "notice": "CONSTRUCTOR Initiates the usageCounter;"
      }
    },
    "notice": "PasswordVault contract. Contract that interfaces with the PASSR_. DApp. This contracts enable the owner of the contract to store his passwords in a hashed way in a smart contract. Implements the Ownable smart contract from openzeppelin. ",
    "version": 1
  }
}